:020000040800F2
:10000000000003203D0F0008390E00083B0E0008D9
:100010003D0E00083F0E0008410E00088D0F00083D
:10002000000000000000000000000000430E000877
:10003000450E000800000000470E0008490E0008A9
:100040008D0F00088D0F00088D0F00088D0F000820
:100050008D0F00088D0F00088D0F00088D0F000810
:100060008D0F00088D0F00088D0F00088D0F000800
:100070008D0F00088D0F00088D0F00088D0F0008F0
:100080008D0F00088D0F00088D0F00088D0F0008E0
:100090008D0F00088D0F00088D0F00088D0F0008D0
:1000A0004D0E00088D0F00088D0F0008530E00083C
:1000B0008D0F00088D0F0008550E00088D0F0008E9
:1000C0008D0F00088D0F00088D0F00088D0F0008A0
:1000D0008D0F00088D0F00088D0F00088D0F000890
:1000E0008D0F00088D0F00088D0F00088D0F000880
:1000F0008D0F00088D0F00088D0F00088D0F000870
:100100008D0F00088D0F00088D0F00088D0F00085F
:100110008D0F00088D0F00088D0F00088D0F00084F
:100120008D0F00088D0F00088D0F00088D0F00083F
:100130008D0F00088D0F00088D0F00088D0F00082F
:100140008D0F00088D0F00088D0F00088D0F00081F
:100150008D0F00088D0F00088D0F00088D0F00080F
:100160008D0F00088D0F00088D0F00088D0F0008FF
:100170008D0F0008000000008D0F00080000000037
:10018000570E00088D0F00088D0F00088D0F000816
:100190008D0F00088D0F00088D0F00088D0F0008CF
:1001A0008D0F00088D0F0008590E00088D0F0008F4
:1001B0008D0F0008000000008D0F00088D0F000853
:1001C0008D0F0008000000008D0F00088D0F000843
:1001D0008D0F00088D0F00088D0F00088D0F00088F
:1001E0008D0F00088D0F00088D0F00088D0F00087F
:0801F000000000000000000007
:1001F80010F8012B11F8013B012A28BF9A42F7D0C9
:10020800D01A704781F0004102E000BF83F000433C
:1002180030B54FEA41044FEA430594EA050F08BF99
:1002280090EA020F1FBF54EA000C55EA020C7FEA5D
:10023800645C7FEA655C00F0E2804FEA5454D4EBDA
:100248005555B8BF6D420CDD2C4480EA020281EAA4
:10025800030382EA000083EA010180EA020281EADC
:100268000303362D88BF30BD11F0004F4FEA01312E
:100278004FF4801C4CEA113102D0404261EB41013D
:1002880013F0004F4FEA03334CEA133302D05242C3
:1002980063EB430394EA050F00F0A780A4F101047F
:1002A800D5F1200E0DDB02FA0EFC22FA05F28018B9
:1002B80041F1000103FA0EF2801843FA05F359419F
:1002C8000EE0A5F120050EF1200E012A03FA0EFC1E
:1002D80028BF4CF0020C43FA05F3C01851EBE37148
:1002E80001F0004507D54FF0000EDCF1000C7EEB65
:1002F80000006EEB0101B1F5801F1BD3B1F5001FA3
:100308000CD349085FEA30004FEA3C0C04F10104C1
:100318004FEA445212F5800F80F09A80BCF1004FEA
:1003280008BF5FEA500C50F1000041EB045141EA6C
:10033800050130BD5FEA4C0C404141EB0101013C35
:1003480028BFB1F5801FE9D291F0000F04BF014624
:100358000020B1FA81F308BF2033A3F10B03B3F1F6
:1003680020020CDA0C3208DD02F1140CC2F10C0286
:1003780001FA0CF021FA02F10CE002F11402D8BFE4
:10038800C2F1200C01FA02F120FA0CFCDCBF41EAB0
:100398000C019040E41AA2BF01EB0451294330BD7F
:1003A8006FEA04041F3C1CDA0C340EDC04F114045C
:1003B800C4F1200220FA04F001FA02F340EA030033
:1003C80021FA04F345EA030130BDC4F10C04C4F179
:1003D800200220FA02F001FA04F340EA0300294659
:1003E80030BD21FA04F0294630BD94F0000F83F4A3
:1003F800801306BF81F480110134013D4EE77FEA86
:10040800645C18BF7FEA655C29D094EA050F08BFD1
:1004180090EA020F05D054EA000C04BF19461046B2
:1004280030BD91EA030F1EBF0021002030BD5FEAF6
:10043800545C05D14000494128BF41F0004130BD1E
:1004480014F580043CBF01F5801130BD01F0004572
:1004580045F0FE4141F470014FF0000030BD7FEAE5
:10046800645C1ABF194610467FEA655C1CBF0B46E0
:10047800024650EA013406BF52EA033591EA030FF7
:1004880041F4002130BD00BF90F0000F04BF0021EF
:10049800704730B54FF4806404F132044FF0000522
:1004A8004FF0000150E700BF90F0000F04BF00219B
:1004B800704730B54FF4806404F1320410F0004501
:1004C80048BF40424FF000013EE700BF42004FEAFC
:1004D800E2014FEA31014FEA02701FBF12F07F4379
:1004E80093F07F4F81F06051704732F07F4208BF30
:1004F800704793F07F4F04BF41F40021704730B537
:100508004FF4607401F0004521F000411CE700BF82
:1005180050EA010208BF704730B54FF000050AE005
:1005280050EA010208BF704730B511F0004502D506
:10053800404261EB41014FF4806404F132045FEA08
:10054800915C3FF4D8AE4FF003025FEADC0C18BFB1
:1005580003325FEADC0C18BF033202EBDC02C2F1A3
:10056800200300FA03FC20FA02F001FA03FE40EA35
:100578000E0021FA02F11444BDE600BF70B54FF039
:10058800FF0C4CF4E06C1CEA11541DBF1CEA135517
:1005980094EA0C0F95EA0C0F00F0DEF82C4481EA7F
:1005A800030621EA4C5123EA4C5350EA013518BF9F
:1005B80052EA033541F4801143F4801338D0A0FB8C
:1005C80002CE4FF00005E1FB02E506F00042E0FB39
:1005D80003E54FF00006E1FB03569CF0000F18BF3F
:1005E8004EF0010EA4F1FF04B6F5007F64F54074E7
:1005F80004D25FEA4E0E6D4146EB060642EAC6217A
:1006080041EA55514FEAC52040EA5E504FEACE2EE6
:10061800B4F1FD0C88BFBCF5E06F1ED8BEF1004FE9
:1006280008BF5FEA500E50F1000041EB045170BD65
:1006380006F0004646EA010140EA020081EA0301A9
:10064800B4EB5C04C2BFD4EB0C0541EA045170BDA5
:1006580041F480114FF0000E013C00F3AB8014F11F
:10066800360FDEBF002001F0004170BDC4F1000468
:10067800203C35DA0C341BDC04F11404C4F12005E9
:1006880000FA05F320FA04F001FA05F240EA020044
:1006980001F0004221F0004110EBD37021FA04F67A
:1006A80042EB06015EEA430E08BF20EAD37070BD34
:1006B800C4F10C04C4F1200500FA04F320FA05F093
:1006C80001FA04F240EA020001F0004110EBD37095
:1006D80041F100015EEA430E08BF20EAD37070BD05
:1006E800C4F1200500FA05F24EEA020E20FA04F3DE
:1006F80001FA05F243EA020321FA04F001F000418D
:1007080021FA04F220EA020000EBD3705EEA430EFD
:1007180008BF20EAD37070BD94F0000F0FD101F02C
:100728000046400041EB010111F4801F08BF013C65
:10073800F7D041EA060195F0000F18BF704703F0A3
:100748000046520043EB030313F4801F08BF013D2A
:10075800F7D043EA0603704794EA0C0F0CEA1355E6
:1007680018BF95EA0C0F0CD050EA410618BF52EAA0
:100778004306D1D181EA030101F000414FF00000A6
:1007880070BD50EA410606BF1046194652EA4306B4
:1007980019D094EA0C0F02D150EA013613D195EA28
:1007A8000C0F05D152EA03361CBF104619460AD170
:1007B80081EA030101F0004141F0FE4141F470017A
:1007C8004FF0000070BD41F0FE4141F4780170BD6A
:1007D80070B54FF0FF0C4CF4E06C1CEA11541DBFCF
:1007E8001CEA135594EA0C0F95EA0C0F00F0A7F8D1
:1007F800A4EB050481EA030E52EA03354FEA0131FE
:1008080000F088804FEA03334FF0805545EA131310
:1008180043EA12634FEA022245EA111545EA1065D8
:100828004FEA00260EF000419D4208BF964244F16F
:10083800FD0404F5407402D25B084FEA3202B61A8E
:1008480065EB03055B084FEA32024FF480104FF462
:10085800002CB6EB020E75EB030E22BFB61A7546D6
:1008680040EA0C005B084FEA3202B6EB020E75EB69
:10087800030E22BFB61A754640EA5C005B084FEAD1
:100888003202B6EB020E75EB030E22BFB61A75469E
:1008980040EA9C005B084FEA3202B6EB020E75EBA9
:1008A800030E22BFB61A754640EADC0055EA060E6A
:1008B80018D04FEA051545EA16754FEA06164FEAAD
:1008C800C30343EA52734FEAC2025FEA1C1CC0D159
:1008D80011F4801F0BD141EA00014FF000004FF0E6
:1008E800004CB6E711F4801F04BF01430020B4F1A7
:1008F800FD0C88BFBCF5E06F3FF6AFAEB5EB030C5F
:1009080004BFB6EB020C5FEA500C50F1000041EB5B
:10091800045170BD0EF0004E4EEA113114EB5C0428
:10092800C2BFD4EB0C0541EA045170BD41F48011FB
:100938004FF0000E013C90E645EA060E8DE60CEA03
:10094800135594EA0C0F08BF95EA0C0F3FF43BAF20
:1009580094EA0C0F0AD150EA01347FF434AF95EAD7
:100968000C0F7FF425AF104619462CE795EA0C0FBB
:1009780006D152EA03353FF4FDAE1046194622E788
:1009880050EA410618BF52EA43067FF4C5AE50EA62
:1009980041047FF40DAF52EA43057FF4EBAE12E752
:1009A8004FF0FF3C06E000BF4FF0010C02E000BF33
:1009B8004FF0010C4DF804CD4FEA410C7FEA6C5C16
:1009C8004FEA430C18BF7FEA6C5C1BD001B050EAB9
:1009D800410C0CBF52EA430C91EA030F02BF90EAA4
:1009E800020F0020704710F1000F91EA030F58BF63
:1009F800994208BF90422CBFD8176FEAE37040F0C5
:100A0800010070474FEA410C7FEA6C5C02D150EA62
:100A1800013C07D14FEA430C7FEA6C5CD6D152EA1D
:100A2800033CD3D05DF8040B704700BF84461046E2
:100A380062468C461946634600E000BF01B5FFF7E1
:100A4800B7FF002848BF10F1000F01BD4DF808EDB1
:100A5800FFF7F4FF0CBF012000205DF808FB00BF82
:100A68004DF808EDFFF7EAFF34BF012000205DF8DC
:100A780008FB00BF4DF808EDFFF7E0FF94BF012029
:100A880000205DF808FB00BF4DF808EDFFF7CEFF2A
:100A980094BF012000205DF808FB00BF4DF808ED69
:100AA800FFF7C4FF34BF012000205DF808FB00BF3A
:100AB8004FEA410212F5001215D211D56FF478737E
:100AC800B3EB625212D94FEAC12343F0004343EA21
:100AD800505311F0004F23FA02F018BF40427047FC
:100AE8004FF00000704750EA013005D111F0004086
:100AF80008BF6FF0004070474FF00000704700BF1C
:100B08004FEA4102B2F1E04324BFB3F5001CDCF127
:100B1800FE5C0DD901F0004C4FEAC0024CEA50705F
:100B2800B2F1004F40EB830008BF20F0010070478E
:100B380011F0804F21D113F13872BCBF01F0004091
:100B4800704741F480114FEA5252C2F11802C2F1C3
:100B5800200C10FA0CF320FA02F018BF40F0010044
:100B68004FEAC1234FEAD32303FA0CFC40EA0C00F6
:100B780023FA02F34FEA4303CCE77FEA625307D133
:100B880050EA01331EBF4FF0FE4040F4400070476A
:100B980001F0004040F0FE4040F40000704700BF04
:100BA8007BB972B90029BEBF00204FF0004106E0B2
:100BB80008BF00281CBF6FF000414FF0FF3000F065
:100BC80057B8ADF1080C6DE904CE002909DB002BFC
:100BD8001ADB10F0EFFADDF804E0DDE9022304B0D7
:100BE8007047404261EB4101002B1BDB10F0E2FA39
:100BF800DDF804E0DDE9022304B0404261EB410185
:100C0800524263EB43037047524263EB430310F0D5
:100C1800D1FADDF804E0DDE9022304B0404261EBDB
:100C280041017047524263EB430310F0C3FADDF809
:100C380004E0DDE9022304B0524263EB430370474A
:100C480053B94AB9002908BF00281CBF4FF0FF312B
:100C58004FF0FF3000F00CB8ADF1080C6DE904CE90
:100C680010F0A8FADDF804E0DDE9022304B07047CB
:100C7800704700BF4A0011D212F5001211D20DD5EB
:100C88006FF47873B3EB62520ED44FEAC12343F08A
:100C9800004343EA505323FA02F070474FF0000034
:100CA800704750EA013002D14FF0FF3070474FF0E3
:100CB8000000704710B5054C237833B9044B13B1C5
:100CC8000448AFF300800123237010BD800000208A
:100CD800000000000815010808B5034B1BB10349C3
:100CE8000348AFF3008008BD000000008400002026
:100CF8000815010800B599B04822002106A80FF090
:100D080031FB1422002101A80FF02CFB002002F077
:100D180037F908B172B6FEE7102306936023012263
:100D28000F930223CDE90D20CDE91132372013921C
:100D38000722CDE9140206A8CDE9163301F0C2FB5B
:100D480008B172B6FEE70F220323CDE90300059030
:100D5800052101A8CDE9012301F0D0FE08B172B642
:100D6800FEE719B05DF804FB7FB501F0E3FAFFF781
:100D7800C1FF2C4B0020DA6C42F00402DA64DA6C12
:100D880002F004020192019ADA6C42F02002DA645D
:100D9800DA6C02F020020292029ADA6C42F08002C7
:100DA800DA64DA6C02F080020392039ADA6C42F099
:100DB8000202DA64DA6C02F002020492049ADA6C33
:100DC80042F00102DA64DB6C03F001030593059B32
:100DD80002F06CF908B172B6FEE702F077F9044642
:100DE80008B172B6FEE702F0C5FC012002F0C2FCB1
:100DF800022002F0BFFC0121204602F01BFD4FF447
:100E0800E13309492046C1E900348C608C8102F045
:100E180099FD08B172B6FEE7044800F03FFF30BF05
:100E2800FDE700BF001002409C000020A4A802209B
:100E3800FEE7FEE7FEE7FEE7FEE77047704770470C
:100E480001F08ABA002002F049BD70477047704728
:100E5800704700000B4B82B01A6E42F001021A660E
:100E68001A6E02F001020092009A9A6D42F08052C6
:100E78009A659B6D03F080530193019B02B002F0C9
:100E88006BB800BF001002400A4A0346106810B54C
:100E980008B9094810600949094C0344091B8B42E9
:100EA80006D90FF017FB0C2303604FF0FF3010BD7D
:100EB8001360FCE7AC000020B8AC0220000003205F
:100EC800000400000120704708B50FF003FB16234B
:100ED80003604FF0FF3008BD08B50FF0FBFA16238A
:100EE8000360FEE770B50D4614460E46731B9C4220
:100EF80001DC204670BDAFF3008006F8010BF5E772
:100F080070B50D4614460E46731B9C4201DC204604
:100F180070BD16F8010B02F0E9FCF5E74FF0FF3061
:100F280070474FF4005300204B6070470120704712
:100F380000207047DFF834D001F07CF9002103E08D
:100F48000B4B5B58435004310A480B4B42189A42EA
:100F5800F6D30A4A02E0002342F8043B084B9A42BF
:100F6800F9D30FF0BDFAFFF7FFFEFEE700000320FC
:100F780030BE020800000020780000208000002019
:100F8800B8AC0220FEE710B538B1406928B1024676
:100F98000468002301209C4200DC10BD52F8041FA5
:100FA800002902DD48430133F5E70020F5E700009A
:100FB800104B1A68137F032B16D0092B07D0012B6F
:100FC80015D1136903EB800393ED000A7047136989
:100FD8001B56D168D2ED027A5B1A00EE103AB8EED1
:100FE800C00A20EE270A704713691B5CF1E79FEDE2
:100FF800020A7047F8020020000080FF7047D0F80E
:101008004C2138B5092A06D8002300F580749A4285
:1010180003D1002008E00FF048F854F8045F8D422F
:1010280003D14A3350F8230038BD0133EFE72DE9E7
:10103800F04104460F4606460025D0F80081A84531
:1010480001D100200BE0B369202B0AD13946F069A1
:10105800FFF7CEF828B91C2303FB05400430BDE890
:10106800F08101351C36EAE7F8B5154B05461868D6
:101078000BF0FAFF044600BBFFF79AFF114EB0EEE3
:10108800407AA6EC010A01200F4B1F68874202D85C
:101098008DB90020F8BDFFF78BFFB4EEC70AF1EE5B
:1010A80010FAA6EC010AD4BFB0EE470A0446B0EE27
:1010B800407A0130EAE72C60EBE76FF00700E9E7D8
:1010C80000030020D8020020D00200202029F0B51B
:1010D80007D000231C25D0F8004100F11806A342D0
:1010E80001D1002006E005FB03F2B758B94202D14E
:1010F80004321044F0BD0133F1E700002DE9F04758
:1011080017463C4A054692F900002DED028B8846A9
:1011180078B965B1384A1268914208D1374A1668D9
:10112800327F032A40D0092A13D0012A05D06FF054
:101138000600BDEC028BBDE8F0878A0030692946BD
:101148000FF0F5F9BDEC028B3846BDE8F047FFF724
:101158008BBFD6ED027AF5EEC07AF1EE10FAE6D939
:1011680004469FED278A6FF07F09A045EAD0F5EC89
:10117800017AB0EEE77AB4EE487AF1EE10FAD6D8F2
:1011880096ED020A87EE800AD6F810A00EF0B6FB9C
:10119800F36818444845B8BF48467F28A8BF7F2051
:1011A8000AF804000134E0E7D6ED027AF5EEC07AD9
:1011B800F1EE10FABBD904469FED118AA045C1D0C3
:1011C800F5EC017AB0EEE77AB4EE487AF1EE10FA6F
:1011D800ADD896ED020A87EE800AD6F810900EF088
:1011E8008DFBF368184480F3080009F80400013403
:1011F800E4E700BF04000020D4020020FC02002025
:10120800FFFF7F7F00487047D8020020024B186814
:1012180000B10069704700BFF8020020084B186849
:1012280058B1007F032809D0092807D0431E584227
:1012380058418000034B1B68584370470120F9E769
:10124800F8020020D0020020014B1868704700BF48
:10125800D4020020014B1868704700BFD00200205C
:10126800014B1868704700BFCC020020084B186873
:1012780058B1007F032809D0092807D0431E5842D7
:1012880058418000034B1B68584370470120F9E719
:10129800FC020020D402002038B50D4B044693F917
:1012A8000000154690B97CB1FFF7E0FF884202467E
:1012B8000AD1084B21461B6818690FF038F92846EF
:1012C800BDE83840FFF7D0BE6FF0060038BD00BF5C
:1012D80004000020FC020020024B186800B1007FC7
:1012E800704700BFFC020020024B186800B1007F65
:1012F800704700BFF8020020044B1B6813B193ED40
:10130800020A70479FED020A704700BFFC020020E6
:1013180000000000024B186800B1C068704700BFA9
:10132800FC020020044B1B6813B193ED020A7047BE
:101338009FED020A704700BFF8020020000000007D
:10134800024B186800B1C068704700BFF80200205F
:1013580007289ABF024B53F820000248704700BF85
:1013680068670208CD60020820292DE9F843054680
:1013780088461446994608D120480BF0A9FE204813
:101388000BF0A6FE0120BDE8F88303681B689847A8
:10139800074638B11B480BF09BFE41461A480BF034
:1013A80097FEEFE7D5F800C1BCF1080F06D9414612
:1013B80016480BF08DFE09211548F0E74FF01C0E7A
:1013C8000FCC0EFB0C5E0EF104060FC60CF10103E8
:1013D80094E8070086E80700CEF81880C5F80031C1
:1013E800D5F84C31384605EB83020133C2F8048145
:1013F800C2F82891C5F84C31C5E700BF043402088B
:10140800353402084A340208793402089A3402084A
:10141800CB340208074B2DE9F0411A684CF24033EF
:101428009A428CB00AD06FF00800034B18700CB0C9
:10143800BDE8F0812015010804000020AB4B1A68B4
:10144800D4189B58E31A1A88042A40F246819B88CC
:10145800002B00F04281E358032B40F03E81A44A60
:10146800A448136813F001030BD1C0F80031C0F889
:101478004C310123A04913600160A04AA0490EF035
:101488000FFE05A806F0F8FE00219E4B994805AA14
:10149800FFF76AFF002840F01D8105A803F0D2F885
:1014A8000321994B934805AAFFF75EFF002840F0F7
:1014B800118105A803F08EFF0421944B8D4805AADD
:1014C800FFF752FF002840F0058105A804F068FBEB
:1014D80009218F4B874805AAFFF746FF002840F0EF
:1014E800F98005A805F0BEF90E218A4B814805AAA6
:1014F800FFF73AFF002840F0ED8005A807F0B2FF9B
:101508001121854B7B4805AAFFF72EFF002840F0E4
:10151800E18005A809F026F92821804B754805AA1D
:10152800FFF722FF002840F0D58005A808F0C6F98B
:1015380012217B4B6F4805AAFFF716FF002840F0E1
:10154800C98005A805F07AFE1921764B694805AAD5
:10155800FFF70AFF002840F0BD80734D2B68DE07B7
:1015680013D40023CDE9023301934FF4C03321464D
:10157800604A00936D486E4B0BF0E4FA01235F4A12
:101588006C496A482B600EF08BFD68486A4D2860EC
:101598000BF07CFC0446002840F0A2800146286835
:1015A8000BF010FB654E2146306028680BF02CFBD1
:1015B800DFF8A4810446C8F800003068FFF7E3FCB0
:1015C8005F4F38602046FFF7DEFC5E4C2B682060DA
:1015D800D86E0AF0CBFA5C4B31681860002900F02D
:1015E80082804B69002B7ED01A68042A7BD15A6806
:1015F800012A78D19A68202A75D1DA680D2A72D121
:101608001B69012B6FD1D8F80020002A6BD05369D1
:10161800002B68D01868022865D15868012862D163
:101628009B68082B5FD13B68B3F5D07F5BD12368FB
:10163800082B58D10D7F6B1EDBB2082B00F28E8071
:1016480040F2051020FA03F3DC0740F18780147F8D
:10165800631EDBB2082B00F28180D840C3077DD51A
:10166800092D7FF4E0AE092C7FF4DDAED1ED027ACE
:10167800F5EEC07AF1EE10FA7FF6D5AE9FED337A2B
:1016880077EEC77A9FED327AF0EEE77AF4EEC77A12
:10169800F1EE10FA3FF6C7AECB685C2B7FF4C3AE11
:1016A800D2ED027AF5EEC07AF1EE10FA7FF6BBAE13
:1016B800DFED286A77EEE67AF0EEE77AF4EEC77A9D
:1016C800F1EE10FA3FF6AFAED36880337FF4ABAEDD
:1016D8000020AAE66FF00200A7E66FF00100A4E67A
:1016E8006FF00300A1E66FF004009EE630150108D4
:1016F800780100207C0100205467020800000020C7
:1017080005100008F9B4000859B500081BB6000810
:10171800B9B600086DB40008BFB70008A1B4000846
:1017280075B7000871B80008B0000020B4000020A8
:10173800100300203DCC000800030020FC0200201C
:10174800D4020020D0020020CC020020A457A440DC
:1017580095BFD6330000803BF80200206FF00500EB
:1017680063E600BF074AD2F8FC3043F08073C2F842
:10177800FC300022044B5A601A6842F001021A60D9
:10178800704700BF00ED00E0001000E00020704747
:101798002DE9F04F2DED048B1646804683B00028C6
:1017A80000F0EA80002A00F0E780B1F57A5F40F0A7
:1017B800E380B3F5D07F40F0DF80714C237863B9C4
:1017C80070480DF0F5F930B16FF0C90003B0BDEC09
:1017D800048BBDE8F08F012323706B4F9FED6B8A5C
:1017E800BA46DFED6B8A6B4DDFF8B4912B466A4938
:1017F8006A4A05F50060B3F57A5F37BF38F91340D8
:10180800F0EE487A07EE904AF8EEE77AB1EC017A02
:1018180038BF67EEA87A67EE277A01338342E2EC95
:10182800017AE8D100235E4A5C4956480DF0A0F9D8
:10183800D9ED007A67EEA77A99ED017AC9ED007AB9
:101848000122574B191DD3ED037AD3ED026A67EED7
:10185800A77A46EEA67A0132B2F5806FE1EC017AFA
:1018680003F10803EFD127EE077A4E4B504683ED7C
:10187800007A80244C49DFF84CC1DFED447A3CF80B
:10188800022B0B8809EB82020192484A31F802BF09
:1018980002EB830E5B4565D3013CE0EC017AECD1A9
:1018A80005F50075B5F5705F0AF5007A9ED19FEDD4
:1018B800408ADFED408AB2EE049ADFF8CC90C84641
:1018C800802598ED000AB4EEE80AF1EE10FA48BF58
:1018D800B0EE680A0DF0D2FF20EE090AB4EEC80A8D
:1018E800F1EE10FAC8BFB0EE408A013DA8EC010A3B
:1018F800E7D10134202C09F50079E0D1DFED2E7A0B
:10190800DFED2E6A38EE678A2D480346002206EB83
:1019180085013C46DFED1D7A03F5007CB4EC017AC5
:10192800B4EEC78AF1EE10FAB3EC016AC8BFB0EEA4
:10193800487A634547EE067AF0D1B0EEE77AB4EE1E
:10194800667AF1EE10FA3FF63FAF01320D2AE1EC6C
:10195800017ADED10D35B5F5D07F07F50077D4D102
:10196800002033E7019ABEEC017AF2EC016A0133F8
:1019780046EE877A01928DE76FF0C70026E700BF31
:1019880010830120148301202C8301200000000013
:101998000000003800FCFFFF041402082CE30120BB
:1019A8002CC301202CD301200012020870F2010878
:1019B800000080FFFFE6DB2E0000A042FFFF7F7FD4
:1019C80070D801080213020830B5084D0A44914244
:1019D80000D130BD11F8013B5840082340F3000402
:1019E8002C40013B84EA5000F8D1F0E72083B8EDA1
:1019F80070B51D46144B86B0019301238DF808304D
:101A080000230A9E0446CDE903268DF809103246C4
:101A180029464FF0FF30ADF80A30FFF7D5FFC04335
:101A28004FF4FA6305901422204601A901F04DFDF8
:101A380038B936B141F2883329462046B2B201F0AE
:101A480044FD06B070BD00BF534D543130B50D464E
:101A580000219DB004468DF86F10039219465F224D
:101A680004A80EF099FC64232A460093FF2120461F
:101A780003ABFFF7BDFF1DB030BD00002DE9F043FB
:101A88004FF05C084FF0FF391F469BB006460D46E5
:101A980014460021424603A8CDF808900EF062FCD7
:101AA800CDF810904FB10397CDF8008082213046D1
:101AB800AA6803ABFFF79CFF0CE074B1FFF7D6FBF5
:101AC800EB6883420DD06FF0640230462D4BA96855
:101AD800FFF7BCFF1BB0BDE8F083FFF7B5FB800044
:101AE800EEE7012001F086FE274BD3F80480002C96
:101AF8003BD0E968254802AAFFF7CEFB0446224BF3
:101B080001205F6801F086FE029BA7EB080704939B
:101B18000394059700F0C6FC1D4B984283BF013320
:101B2800B0FBF3F0059B002388BFB3FBF0F30693EB
:101B3800C4B9FFF767FB0446FFF78CFB2346089000
:101B48000AA904EB8002934217D1FFF767FB20280C
:101B580028BF20200990FFF759FB099A014612A8CF
:101B68000EF0E5FC5C230093A0E7FFF76DFB02AAEB
:101B780001460648FFF7C2FAC0E753F8040B41F8DC
:101B8800040BE0E778350208001000E08894022092
:101B98003F420F007FB5084B03921A699B69049274
:101BA80005930C230A46009390216B44FFF720FF0E
:101BB80007B05DF804FB00BF301702202DE9F041A3
:101BC800ECB002AC1546064640F2A5120F46204678
:101BD80000210EF0C7FB40F201132560A380FFF738
:101BE8007BFBA071FFF780FB274B284AE071C4E913
:101BF80002234FF008132361FFF726FB00283FD08C
:101C0800FFF722FB224B60611B680025A3614FF49C
:101C1800C033E361FFF724FB2062FFF76DFB84ED1F
:101C2800090AFFF777FBA062FFF77CFB84ED0B0A3C
:101C3800FFF786FB2F22174920630FA80EF0ACFB95
:101C4800412215491BA80EF072FC0DF1AD0828467B
:101C5800FFF77EFB013501461F2240460EF09CFB34
:101C6800082D08F12008F2D140F2A5133A46009356
:101C7800812123463046FFF7BBFE6CB0BDE8F081FA
:101C88004FF4D070BEE700BF0D0001000100200036
:101C980020150108AD350208D63502082DE9F04FA8
:101CA8002DED048BABB00446FFF7B4FB0646FFF7F7
:101CB80059FD002001F0AEFD012001F0ABFD02202E
:101CC80001F0A8FDB6BB304601F094FD3246002174
:101CD8002046FFF773FF0025844B0C934FF0000359
:101CE80001228DF81B3020464FF0FF330DF11B0108
:101CF80001F046FCB0B905F1A8026A449DF81B3012
:101D080012F8781C994217D1032D05F1010002F849
:101D18008C1C16D14FF4FA631022204608A901F052
:101D28002FFC80B16FF067020021714B2046FFF74E
:101D38008DFED0E70220C7E7532B04BF01208DF8A2
:101D48001C300546CAE79DF82030012B04D0694BAA
:101D58006FF063020999E9E7BDF822300BB1664BD1
:101D6800F6E741F208430A9A9A4203D9634B6FF0A7
:101D78006402EFE75AB141F288332046604992B2D3
:101D880001F0FEFB18B16FF067025E4BE2E7DDF889
:101D980028A04FF0FF3052465949FFF715FEC043BF
:101DA8000B9B834203D0584B6FF06502D2E79DF836
:101DB8002130013B122B00F21D82DFE813F01300E3
:101DC8001D0024001B021B021B021B021B021B021C
:101DD8001B021B021B021B021B021B0227006D00B9
:101DE8002F01FA010999BAF1000F03D06FF06402CC
:101DF800464B9BE732466BE733460022204607A94D
:101E0800FFF73CFE67E733460122F7E7BAF1100F08
:101E180001D03F4BABE73F4D394B47F65852D3E91A
:101E280000B700212846B3F80880B3F80AA0D3F811
:101E38000C900EF097FA16B13246099904E0FFF7B4
:101E4800A5FC0999024618B12046FFF7A3FE42E710
:101E5800BBF57A5F05D1B8F1010F02D1BAF1000FD5
:101E680003D02D4B6FF0680260E72C4B7A1E9A4224
:101E780004D8B7FBFBF30BFB13730BB1284BF1E74B
:101E88004FF0FF333246C5E9017985F80080EB60F1
:101E98002E6385F83460D7E71E4D2B781BB9214B8C
:101EA8006FF0690256E7BAF1040F02D91AF0010976
:101EB80001D01D4B5BE7124F2B693968994208D155
:101EC8006B68AAF104025B1AB3EB520F4FEA520B8C
:101ED80001D2164BE4E7E868391DFFF775FDDFF816
:101EE8005080E860CB4525D10022A6E7534D5431F8
:101EF80017360208323602084F3602086A360208D8
:101F08008894022092360208AE360208C5360208C6
:101F1800E836020830170220123702087E8A1D00B0
:101F28003A370208703702089B370208CA37020896
:101F3800001000E07B793A7942EA03226B69591C68
:101F480005EB4303DA862B69B1F57A5F03F10103E8
:101F580069612B6152D1D8F804A00391FFF774F995
:101F6800A64A03460399A648FFF712FCD5E90832AA
:101F7800D8F804102863A1EB0A015B1842F10002AB
:101F8800C5E908320246002845D14FF0010A4FF052
:101F9800FF3350460C9385F801A001F02BFCD8F8CC
:101FA80004300593FFF750F90CAA01469348FFF750
:101FB800A5F8D8F8041004905046039101F02AFCC3
:101FC8000399059B049AC81AD5E90A311B1841F1EF
:101FD8000001C5E90A3185F83420E2B9FFF712F9A2
:101FE8008246FFF737F95346864A0AEB8000984243
:101FF80008D1AB690133AB6100236B6109F10109B9
:1020080002376FE7D2ED007AB3EC017A77EE877A80
:10201800E2EC017AEBE700232B700EE7BAF1000F30
:1020280001D0794BA3E6794D2B785BB1D5F81090A8
:102038006B68994506D16F6927B9D5F81880B8F14A
:10204800000F01D1724B2BE7EB68AA68DB43934280
:1020580003D0704B85F800A0A6E66C2251460FA865
:102068000EF080F9D5E9082C4FF0FF3195F934309E
:10207800CDF894800C932B6B0D91CDE92339D5E9DC
:102088000A3012EB03084CEB000991427AEB0C0C76
:1020980038BF0A4626920022994282414FF0FF3209
:1020A80038BF134642454FF0000272EB09022893ED
:1020B800434638BF4FF0FF330E9300F0F3F9564B09
:1020C800984227D90133B0FBF3FAD5E90801002378
:1020D8005246FEF7B5FD002908BF0346D5E90A01B7
:1020E80018BF4FF0FF33524627930023FEF7A8FD91
:1020F80000290CBF03464FF0FF3352462993404650
:1021080000234946FEF79CFD002914BF4FF0FF331A
:1021180003460F93239B0C9A134310D1FFF79AF8A9
:102128009FED3E9A6FF07F0BDFF8D89011900DF17C
:102138006B080DF14C0A119B9F420BD3129300239D
:102148002B7078239221099A00930CAB2046FFF755
:102158004FFCC0E5D5ED067AB9EC017AF8EE677A5E
:10216800C7EE278AF4EEC98AF1EE10FAEAEC018A82
:10217800C4BFB0EE689A0D97FFF7D4F8B0EE408A66
:10218800FFF7DEF8B5EEC08AF1EE10FA034606DD79
:1021980088EE880A03900DF0FDFB039B03447F2B18
:1021A800A8BF7F235B45B8BF5B46013708F8013FEE
:1021B800C1E7BAF1000F01D0194BD8E5134B5A7893
:1021C8000AB9184B6CE61B6B174D2B60FFF73CF8F0
:1021D8006860FFF739F80949820005F108000EF038
:1021E800A6F9FFF731F8023080002B469121099AB1
:1021F8000090ABE76FF066020C4BABE52C030220B6
:102208006617022068940220F83702083017022067
:102218001C380208373802083F420F00000080FFD0
:102228005A3802088638020888940220AD38020815
:1022380070470000034AD2F8883043F47003C2F8AC
:102248008830704700ED00E021490B681B0754BF38
:10225800D1F894300B688A6858BFC3F3032302F09F
:102268000C0248BFC3F30313082A2FD019480C2ABD
:1022780050F823300CD01848042A08BF03468A684F
:102288001649C2F303128A5CD340154A136070479B
:10229800C868CA6800F00300C2F30312022802F1FA
:1022A80001020FD003280FD0B3FBF2F2CB68C86845
:1022B800C3F306235343C0F3416201325200B3FB18
:1022C800F2F3DCE7044BEFE7064BEDE7054BD6E707
:1022D80000100240886702080024F400D067020852
:1022E8000800002000127A0038B50F4B05461A780E
:1022F8000AB9012038BD4FF47A73B3FBF2F30B4AE5
:102308001068B0FBF3F000F0BDFE04460028F0D1E1
:10231800072DEED8024629464FF0FF3000F074FE34
:10232800034B20461D60E5E70C0000200800002054
:102338001000002010B5042000F054FEFFF784FFC1
:102348000020FFF7D1FF044618B9FEF783FD2046A9
:1023580010BD0124FBE70000034A044B11681B78F9
:102368000B441360704700BF90A802200C000020A7
:10237800014B1868704700BF90A8022037B51D4D63
:102388000446AB6DD90018D500F0D6FD30F40073C3
:1023980023D1802C03D9A02C8CBF022301231649FA
:1023A8000A6822F00F021A430A60086800F00F005A
:1023B800C01A18BF012003B030BDAB6D43F0805385
:1023C800AB65AB6D03F080530193019B00F0B4FD46
:1023D800AB6D23F08053AB65D8E7802C05D806D0C9
:1023E800A4F1700253425341D9E70323D7E70223EC
:1023F800D5E700BF0010024000200240254B9A6834
:10240800D96812F00C0205D00C2A24D101F003017E
:10241800012927D119682048090755BFD3F8941016
:102428001968C1F30321C1F3031150F8210082B3E5
:10243800D968DA6801F00301C2F30312022902F134
:10244800010211D003291ED0B0FBF2F0D968C1F304
:10245800062148430FE0042A1AD0082A0F4818BF5B
:10246800002070470020E3E7D8680D49C0F3062034
:10247800B1FBF2F25043DB68C3F3416301335B0005
:10248800B0FBF3F07047D8680449C0F30620EFE7C3
:1024980003487047001002408867020800127A005B
:1024A8000024F40008B5FFF7A9FF044B044A9B6811
:1024B800C3F30313D35CD84008BD00BF001002402B
:1024C800D06702082DE9F341054618B9012002B08A
:1024D800BDE8F081904C0368A668E768DB0606F063
:1024E8000C0607F0030735D51EB10C2E62D1012F5B
:1024F80060D12368980702D5EB69002BE6D02368E2
:10250800686A190756BFD4F8943023681B0903F08A
:10251800F003984237D9FFF731FF0028D6D1236856
:1025280043F00803236023686A6A23F0F003134327
:10253800236063682A6A23F47F4343EA02236360C3
:10254800FFF7B0FF754B1860754B1868FFF7CCFEA6
:102558000028BCD12B68DB0769D42B68990700F1E8
:10256800AF802B681E0700F1F2802B68590700F135
:102578002F812B689A0600F1F081EB6A002B40F05E
:1025880020820020A3E7236843F008032360236820
:1025980023F0F0030343236063682A6A23F47F432C
:1025A80043EA02236360002ECAD1FFF7E7FE002842
:1025B800C6D08BE7EB6933B3236843F0010323608C
:1025C800FFF7D6FE804623689B0711D5236843F0A2
:1025D8000803236023686A6A23F0F0031343236027
:1025E80063682A6A23F47F4343EA02236360B1E7FE
:1025F800FFF7BEFEA0EB08000228E4D923689A077B
:10260800E1D4032063E7236823F001032360FFF785
:10261800AFFE804623689A079CD5FFF7A9FEA0EB7A
:1026280008000228F6D923689907EAD4F2E7082EA9
:1026380003D00C2E08D1032F06D123689A038CD51A
:102648006B68002B89D141E76B68B3F5803F14D1E3
:10265800236843F480332360FFF78AFE80462368AB
:1026680099033FF57AAFFFF783FEA0EB08006428D3
:10267800F5D923689B03C4D5F1E7B3F5A02F04D19E
:10268800236843F480232360E2E7226822F480323F
:102698002260226822F480222260002BDCD1FFF71E
:1026A80067FE804623689B037FF557AFFFF760FE00
:1026B800A0EB08006428F5D923689A03A1D4F1E7B0
:1026C800042E03D00C2E10D1022F0ED123685E05E4
:1026D80003D5EB68002B3FF4F9AE63682A6923F051
:1026E800FE4343EA026363603BE7EB68D3B12368C8
:1026F80043F480732360FFF73BFE064623685A05C0
:10270800EBD4FFF735FE801B0228F7D9236859055B
:102718007FF577AFF2E700BF001002400800002005
:1027280010000020236823F480732360FFF720FE45
:10273800064623685F057FF514AFFFF719FE801B77
:102748000228F6D923685B053FF55BAFF1E76B69B3
:102758002BB3AB69F3B9D4F8943023F01003C4F861
:102768009430D4F8943043F00103C4F89430FFF760
:10277800FFFD0646D4F894309B073FF5F6AEFFF709
:10278800F7FD801B0728F5D9D4F894309A077FF510
:1027980038AFEFE7D4F8943043F01003DFE7D4F80C
:1027A800943023F00103C4F89430FFF7E1FD0646A6
:1027B800D4F8943099077FF5D8AEFFF7D9FD801B80
:1027C8000728F5D9D4F894309F073FF51AAFEFE7FB
:1027D800A36DDA0043D40127A36D43F08053A365AA
:1027E800A36D03F080530193019BA74E3368DB056B
:1027F80037D5AB68D80749D4D4F8902022F0010225
:10280800C4F89020D4F8902022F00402C4F8902054
:10281800002B4AD1FFF7ACFD41F288380646D4F8C0
:102828009030990700F18D80D4F890301A0655D56C
:1028380041F28838D4F8903023F08003C4F89030FF
:10284800D4F89030190549D5FFF792FD801B404513
:10285800F6D9D4F890301B053FF5D3AEF0E7002742
:10286800C3E7336843F480733360FFF781FD804624
:102878003368DA05BDD4FFF77BFDA0EB080002281A
:10288800F6D93368D9057FF5BCAEF1E713F0040F2C
:10289800D4F890301EBF43F00403C4F89030D4F845
:1028A800903043F00103C4F89030FFF761FD41F226
:1028B80088380646D4F89030990717D5AB6813F0D6
:1028C800800FD4F8903027D041F2883843F0800345
:1028D800C4F89030D4F890301B0512D5002F3FF47F
:1028E80048AEA36D23F08053A36542E6FFF740FD91
:1028F800801B4045DED9D4F890309B077FF581AE28
:10290800D8E7FFF735FD801B4045E3D9D4F8903070
:102918001A057FF576AEDDE741F2883823F08003AB
:10292800C4F89030D4F890301A05D7D5FFF720FDB9
:10293800801B4045F6D9D4F8903019053FF561AEB3
:10294800F0E7FFF715FD801B40457FF668AFD4F828
:1029580090309B073FF555AE61E7AB6AC3B1D4F839
:10296800983043F00103C4F89830FFF701FD06469C
:10297800D4F898309F073FF500AEFFF7F9FC801BAD
:102988000228F5D9D4F898309B077FF53AAEEFE7DF
:10299800D4F8983023F00103C4F89830FFF7E8FC26
:1029A8000646D4F898309A077FF5E7ADFFF7E0FCC4
:1029B800801B0228F5D9D4F8983099073FF521AE45
:1029C800EFE7A26802F00C020C2A63D0022B2368FE
:1029D80023F08073236042D1FFF7CAFC06462368C0
:1029E8009F0132D4E268294B13402A6B1343AA6B28
:1029F80043EA0223EA6B43EAC2636A6B013A43EA99
:102A080002132A6C5208013A43EA42536A6C52088C
:102A1800013A43EA4263E360236843F0807323602A
:102A2800E36843F08073E360FFF7A2FC0546236880
:102A380099013FF5A6ADFFF79BFC401B0228F6D98C
:102A4800236898017FF5DDADF1E7FFF791FC801B66
:102A58000228C4D923689B013FF5D3ADBFE7FFF730
:102A680087FC054623689B0104D4E268084B1340A1
:102A7800E36086E5FFF77CFC401B0228F2D9236857
:102A88009A013FF5BEADEDE7007000400C809F0154
:102A9800FCFFEEFE012B3FF419ADE3682A6B03F04F
:102AA800030191427FF412AD696B03F0F002013922
:102AB800B2EB011F7FF40AADA96B03F4FE42B2EB3F
:102AC800012F7FF403ADE96B03F07842B2EBC16FDD
:102AD8007FF4FCAC2A6C03F4C0015208013AB1EB54
:102AE800425F7FF4F3AC6A6C03F0C0635208013AAA
:102AF800B3EB426F14BF01200020E8E42DE9F8434E
:102B08000E46054610B90120BDE8F883724A1368DD
:102B180003F00F038B4232D3296888073AD4C907D8
:102B28007AD56F686D4C032F236840F0A0809A0116
:102B3800E9D5E368E26803F00303C2F30312022B4A
:102B480002F1010233D0032B39D0012B3CD00023F2
:102B5800E268C2F3416201325200B3FBF2F3604A09
:102B680093423FD9A36813F0F00F3BD1A3684FF00D
:102B7800800823F0F00343F08003A36034E0136877
:102B880023F00F030B431360136803F00F038B420A
:102B9800B9D1C1E7514AA868936803F0F003984295
:102BA80081BF936823F0F00303439360B7E7E368BA
:102BB8004C49C3F30623B1FBF2F25343C8E7E36879
:102BC8004949C3F30623F6E72368484A1B0755BF5C
:102BD800D4F894302368C3F30323C3F3031352F8E0
:102BE8002330B5E74FF00008A36841F2883923F095
:102BF80003033B43A360FFF7BBFB0746A3686A6870
:102C080003F00C03B3EB820F43D1B8F1000F03D0EC
:102C1800A36823F0F003A360296888070BD52F4A1F
:102C2800A868936803F0F00398423FBF936823F0C5
:102C3800F00303439360284A136803F00F03B34279
:102C480035D84A073FD40B0707D5244A2969936822
:102C580023F4605343EAC1039360FFF723FC244B3A
:102C68001860244B1868BDE8F843FFF73DBB022FF6
:102C780008D113F4003F3FF446AFFFF7BFFB184BF2
:102C880098426EE717B913F0020FF4E713F4806F58
:102C9800F1E7FFF76DFBC01B4845AFD9A3686A6829
:102CA80003F00C03B3EB820FA8D003202CE71368C2
:102CB80023F00F0333431360136803F00F03B34289
:102CC8007FF421AFBDE7054AE868936823F4E06321
:102CD80003439360B7E700BF0020024000100240A2
:102CE80000B4C4040024F40000127A0088670208C3
:102CF800080000201000002008B5FFF7D3FB044BA4
:102D0800044A9B68C3F30223D35CD84008BD00BFC4
:102D180000100240C867020808B5FFF7C3FB044B60
:102D2800044A9B68C3F3C223D35CD84008BD00BFE4
:102D380000100240C86702082DE9F04F00234FF049
:102D48000F0A5E4C0A6832FA03F501D1BDE8F08F2C
:102D5800012505FA03F919EA020200F0A180032708
:102D68004E684FEA430806F0030507FA08FE6F1E8F
:102D7800012F6FEA0E0ED1F808C031D8876807EA2C
:102D88000E0BCF6807FA08F747EA0B078760476812
:102D980027EA0909C6F300179F4047EA0907476071
:102DA800C7680CFA08FC07EA0E074CEA0707022D69
:102DB800C7601AD14FEAD30C00EB8C0C03F007095B
:102DC800DCF820704FEA89090AFA09FB27EA0B0B9D
:102DD8000F6907FA09F747EA0B07CCF8207004E0F7
:102DE800032DDDD1BCF1010FDAD1076805FA08F52A
:102DF80007EA0E073D4316F4403F056050D023F024
:102E0800030707F1804707F53D3703F0030C3D6ED4
:102E18004FEACC0C0AFA0CFE25EA0E0E284DA84201
:102E280040D005F58065A8423ED005F58065A842EA
:102E38003CD005F58065A8423AD005F58065A842E2
:102E480038D005F58065A84236D005F58065A842DA
:102E580014BF0725062505FA0CF545EA0E053D665B
:102E6800D743256816F4801F0CBF3D4015432560E5
:102E7800656816F4001F0CBF3D4015436560D4F823
:102E8800845016F4003F0CBF3D401543C4F88450ED
:102E9800D4F88050F60354BF3D401543C4F8805021
:102EA80001334FE70025D6E70125D4E70225D2E70D
:102EB8000325D0E70425CEE70525CCE700F402403A
:102EC800000002420AB1816170478162704701299E
:102ED80005D0022901D029B94260826000E0426031
:102EE800002070470120704710B101600020704732
:102EF8000120704770B501250468064604F01F03D9
:102F08009D40C4F300440A4B6401E2582A4203D0AE
:102F1800E550436803B19847064BE2582A4205D06A
:102F2800E550B36813B1BDE87040184770BD00BFE5
:102F38000CF4024010F40240024B186800F4C06020
:102F4800704700BF00700040024A536843F40073A2
:102F58005360704700700040024A936843F480430E
:102F68009360704700700040044B1869C3045ABF4F
:102F7800C04300F400404FF4805070470070004098
:102F8800154A10B501461468FFF7EEFFB0F5004F7B
:102F980020D0D3681B041DD404F4C0648C4201D132
:102FA800002010BD136823F4C0630B4313600B4B60
:102FB8000B491B68B3FBF1F303EB83035169480525
:102FC80001D5591C04D153695B05E9D50320E8E70D
:102FD800013BF3E70120E4E700700040080000200F
:102FE800A086010007490302CA6803F4E06322F4DB
:102FF800E0621204120C134343F0BF6343F400333E
:10300800CB60704700ED00E0154B30B5DC68C4F3C9
:103018000224C4F10703E51C032B28BF0323062D54
:103028004FF0FF3594BF0024043C05FA03F321EA6E
:103038000303A54022EA0502A340002843EA02034D
:10304800ACBF00F16040074A4FEA4313DBB2ABBFA5
:1030580000F5614000F00F0080F80033135430BDD4
:1030680000ED00E014ED00E0002807DB0123410932
:10307800034A00F01F00834042F82130704700BF28
:1030880000E100E00138B0F1807F0BD24FF0E0237F
:10309800E021054A586182F8231000200722986130
:1030A8001A6170470120704700ED00E00146064AAA
:1030B800106810F0010009BF1368012023F0040311
:1030C8000B4308BF1360704700040340034A002005
:1030D800136843F001031360704700BF0004034006
:1030E80010B5026852E8003F23F4907342E80031BB
:1030F80002680029F5D10F4C02F1080353E8003F9C
:10310800234002F1080C4CE800310029F4D1C36EC9
:10311800012B07D152E8003F23F0100342E80031A9
:103128000029F7D12023C0F88C300023C3664367F9
:1031380010BD00BFFEFFFFEF70470000F8B5044662
:103148002169A26823680A4361691D68C0690A4346
:103158008449024329400A431A605A68E16822F404
:1031680040520A435A60804AA16993421CBF226AAE
:1031780011439A6822F06E4222F430620A439A6040
:10318800DA6A616A22F00F020A43DA62774A9342E6
:1031980030D1774BD3F8883003F00303022B00F0CB
:1031A800D880032B00F0C880012B00F0CC80B0F54C
:1031B800004F40F0D380FFF7AFFD002877D06D4B6C
:1031C800626A616833F812204B08B0FBF2F203EB35
:1031D8004203B3FBF1F34FF6EF72A3F110019142F2
:1031E80020D823F00F02216892B2C3F3420313439D
:1031F800CB605CE0604A934216D15D4BD3F88830CF
:1032080003F00C03082B00F0A48008D8002B40F032
:103218009A80B0F5004F78D1FFF76EFDCDE70C2B03
:1032280000F08A80012043E0544A93420AD1504B6F
:10323800D3F8883003F03003202B00F08A80E5D9DA
:10324800302BEDE74E4A934209D1494BD3F88830E9
:1032580003F0C003802B7CD0D8D9C02BE0E7494AC3
:1032680093420BD1424BD3F8883003F44073B3F543
:10327800007F6ED0CAD9B3F5407FD1E73A4A93426E
:10328800D0D13B4BD3F8883003F44063B3F5006FDB
:1032980015D003D843B9FFF72FFD07E0B3F5406F0A
:1032A800C0D14FF400400BE0FFF7A8F840B9002068
:1032B8004FF00113A3660023C4E91D33F8BD32485B
:1032C8002C4B626A656833F8122005EB4501B0FBA8
:1032D800F2F39942A6D8B3EB053FA3D800231946C9
:1032E800FDF7AEFC0023064619464FF480776808C0
:1032F8002A46E6FB0701FDF7A3FC244BA0F5407224
:103308009A428FD82368D860D1E7FFF7F5FC0028E8
:10331800CDD0616A174A636832F81120B0FBF2F029
:1033280000EB5300B0FBF3F04FF6EF73A0F110027F
:10333800E6E7FFF763F8EAE7B0F5004F3FF43FAF81
:103348004FF40040E5E7B0F5004FF2D1FFF756F82B
:1033580033E7B0F5004F0C48DBD130E7FFF7DCFC72
:10336800D5E700BFF369FFCF008000400038014077
:1033780000100240E0670208004400400048004096
:10338800004C0040005000400024F400FFFC0F00F7
:10339800836A10B51A0706D50168846B4A6822F457
:1033A800004222434A60DC0706D50168C46A4A68BD
:1033B80022F4003222434A60990706D50168046B5B
:1033C8004A6822F4803222434A605A0706D50168C7
:1033D800446B4A6822F4802222434A60DC0606D500
:1033E8000168C46B8A6822F4805222438A60990675
:1033F80006D50168046C8A6822F4005222438A6068
:103408005A0610D50168446C4A68B4F5801F22F446
:10341800801242EA04024A6005D14A68846C22F4A8
:10342800C00222434A601B0606D50268C16C536875
:1034380023F400230B43536010BD2DE9F8430446E1
:103448000D4617469846DDF820902268D36935EA7C
:1034580003030CBF01230023BB4201D0002022E05C
:10346800B9F1FF3FF2D0FEF783FFA0EB0800484513
:1034780029D8B9F1000F26D021680B685A07E4D57E
:10348800802DE2D0402DE0D0CE6916F008060CD091
:10349800082520460D62FFF723FE00230120C4F80B
:1034A800905084F88430BDE8F883CB691B05CCD5EF
:1034B8004FF4006320460B62FFF712FE202384F8C6
:1034C8008460C4F890300320EDE72DE9F74398466F
:1034D800D0F888300446202B0E4617464ED119B92D
:1034E800012003B0BDE8F083002AF9D0212300258C
:1034F800C0F89050C0F88830FEF73AFFA3688146BC
:10350800B3F5805FA4F85470A4F8567003D123690A
:103518000BB935461E46B4F856204B4692B2CDF844
:1035280000804AB940212046FFF787FF2023C4F8CE
:1035380088300028D5D008E0002280212046FFF7F7
:103548007CFF20B12023C4F888300320C9E7226813
:103558008EB935F8023BC3F308039362D4F8883078
:1035680003F02103212BBBD1B4F85620013A92B2C3
:10357800A4F85620CFE716F8013BEEE70220B0E7A3
:103588002DE9F7439846D0F88C300446202B0F4697
:10359800164661D119B9012003B0BDE8F083002AAD
:1035A800F9D022230025C0F89050C0F88C30C566A9
:1035B800FEF7DEFEA3688146B3F5805FA4F85C6081
:1035C800A4F85E600DD12369DBB1FF221646A4F88A
:1035D8006020B4F85E0080B2E0B92023C4F88C30D3
:1035E800DAE733B92569002DEFD07F221D4616464C
:1035F800EDE7B3F1805F0AD12369002BF5D03F22B4
:10360800E4E740F2FF123D4616461F46DFE72A462A
:103618002E46DCE74B46002220212046CDF80080CC
:10362800FFF70BFF20B120230320C4F88C30B3E749
:1036380023685B6A334067B925F8023BD4F88C30BD
:10364800222BA8D1B4F85E30013B9BB2A4F85E30BF
:10365800BFE707F8013BF1E702209DE773B50026B5
:103668000446C0F89060FEF783FE236805461B6891
:103678001A071CD56FF07E43324600934FF40011B1
:1036880003462046FFF7D9FE88B1226852E8003F7A
:1036980023F0800342E800310029F6D12023C4F842
:1036A80088300320002384F8843002B070BD23687A
:1036B8001B685B0724D56FF07E43002200934FF40C
:1036C80080012B462046FFF7B8FEC8B1226852E8B1
:1036D800003F23F4907342E8003122680029F5D1B5
:1036E80002F1080353E8003F23F0010302F1080048
:1036F80040E800310029F3D12023C4F88C30D0E70A
:1037080020230020C4F88830C4F88C30E066206795
:10371800C8E710B5044650B3D0F888301BB980F814
:103728008430FFF709FD24232268C4F88830136821
:1037380023F001031360A36A13B12046FFF728FEA4
:103748002046FFF7FBFC012811D023682046BDE87E
:1037580010405A6822F490425A609A6822F02A026D
:103768009A601A6842F001021A60FFF777BF0120D9
:1037780010BD000030B51C4B89B0DA6CF8B942F0C6
:103788000402DA64DB6C03F004030093009B174B1C
:1037980003A933F810500123CDE90433032306931A
:1037A800134B039553F820402046FFF7C5FA2046EF
:1037B80000222946FFF786FB002009B030BD01280A
:1037C80008D142F00202DA64DB6C03F002030193D1
:1037D800019BDCE742F00102DA64DB6C03F00103D1
:1037E8000293029BD3E700BF001002400C68020856
:1037F8000068020808B5054B012233F81010044B85
:1038080053F82000FFF75EFB002008BD0C68020893
:103818000068020808B5054B002233F81010044B65
:1038280053F82000FFF74EFB002008BD0C68020883
:103838000068020870B5214B86B0DA6C064642F083
:103848000402DA64DB6C002003F004030093009B9D
:103858004FF40053019302230C46CDE9030331B919
:103868000291174801A9FFF767FA002013E0012920
:10387800FBD14FF48813124801A90293FFF75CFAB1
:103888000C23104D104903FB06552846FFF72CFB67
:1038980018B16FF0030006B070BD0C4A21462846E7
:1038A800FFF715FB02460028F3D10F211820FFF778
:1038B800ABFB1820FFF7D8FBD7E700BF001002408A
:1038C8000008024298A802200D000006DB38000814
:1038D800704708B50020FFF7FBFF08BD0C22024B1C
:1038E80002FB0030FFF706BB98A8022037B59425E5
:1038F800074B0190074C187801224FF47A7305FBA7
:10390800004001A9FFF7E1FD019803B030BD00BFF9
:1039180094A80220A4A802200A6842604A6882602B
:103928000A89C2604A8902610C2242618A894FF47D
:10393800004182610022C0E907124262FFF7E9BE36
:10394800FFF7EABF2DE9F04307460E4695B0002978
:1039580000F097804C4B4D4953F820209423434363
:1039680001EB0308CA504A494A4B4B4CCDE90B13AB
:10397800CDE90D13494B4A49CDE902134FF4E163F0
:10398800ADF80030ADF80430464B9A4214BF01251B
:10399800002555D1A36D43F08053A365A36D03F0B3
:1039A80080530493049BFFF7CFFAE36C43F0400382
:1039B800E364E36C03F040030593059BE36C43F079
:1039C8004003E364E36C03F040030693069BE36D56
:1039D80043F00103E365E36D03F001030793079BDD
:1039E80014AB03EB450939F8483C0FA90F930223A0
:1039F800109312930123119305F150030DEB030467
:103A080014F8503C139314AB03EB850555F8240CBC
:103A1800FFF792F939F8443C55F81C0C0F9314F849
:103A28004C3C0FA91393FFF787F9314640462FBB4B
:103A3800FFF772FF00B36FF0030015B0BDE8F08325
:103A4800E36C43F00803E364E36C03F008030893B2
:103A5800089BE36C43F00803E364E36C03F008039A
:103A68000993099BA36D43F48023A365A36D03F415
:103A780080230A930A9BB3E70020DEE7FFF760FF85
:103A8800D8E76FF00100D8E7F8670208A4A8022079
:103A980000180242000C024200100240000100021D
:103AA8008000000100800040002908B501DA0CF010
:103AB800FCFA03688B42FADD00EB8100406808BD20
:103AC800034601680022012010B5914200DC10BDB8
:103AD80053F8044F01326043F7E770B50568049C5A
:103AE800042D01D00CF0E1FA4568A5B90029F9D1F7
:103AF8008668AEB9002AF5D1C568B5B9002BF1D1F1
:103B08000069B8B9002CEDD101FB062205FB023390
:103B180000FB034070BD0029E4DB8D42E8DCE1E7EF
:103B2800002ADFDB9642E7DCDCE7002BDADB9D428C
:103B3800E6DCD7E7002CD5DBA042E5DCD2E770B5A0
:103B480015461E46FFF7B0FF314604462846FFF7E4
:103B5800ABFF844201D00CF0A8FA70BD2DE9F04FFC
:103B68009A464369A1B01593B0F90A30CDE91E12FF
:103B78000D93B0F90C30DDF8ACB00E93B0F90E30FF
:103B88000F93B0F910301093B0F902301193B0F9D7
:103B980004301293C3691693836A0A93C36A0B931A
:103BA800DDE90A32934201DD0CF07FFADAF80030E1
:103BB800042BF9D1DBF80030042BF5D12F9B1B68BF
:103BC800042BF1D100232F9A19465046FFF7B7FF6F
:103BD80003231990002158462F9AFFF7B0FF2E9B18
:103BE800DAF8104008902BB12D98FFF769FF089B71
:103BF8009842D9D1DAF808301A93DAF80C301B93C6
:103C0800DBF808301C93DBF80C301D93DBF8103020
:103C1800069394FBF3F3002BC6D0069A02FB1344D9
:103C2800002CC1D1089A92FBF3F30C93002BBBD064
:103C3800A1462F9B9B6817932F9BDB681893199BB2
:103C4800994580F29A80129B5B4209930023029364
:103C580010E0119B5B42079300230393039B189A80
:103C68009342C0F28880029B0E9A01330293099B0B
:103C780013440993029B179A9342EADB09F101095D
:103C8800DDE70C9B002594FBF3F3069A099E53434A
:103C980004951493049B1C9A93422DDB2E9B13B11D
:103CA80053F824301D441F9B284653F824201E9B9C
:103CB80053F8241009F0F4FDDDE9022305460094C9
:103CC80049462F98FFF709FF169B01341D440A9BAC
:103CD8009D42B8BF1D460B9B9D42A8BF1D46309B09
:103CE8001D54089B9C42CCDB039B0D9A0133039324
:103CF800079B13440793B1E70023079F0593059B90
:103D08001D9A934205DB049B01330493109B1E44C8
:103D1800C0E756EA070328D41B9BBB4225DD1A9B44
:103D2800B34222DD4FF000081CE0149B32464344A6
:103D38004946009350463B46FFF7CFFEDDE9042392
:103D48001390CDF8008021465846FFF7C6FE139A17
:103D58002A9B08F101089B56159A13442C9A12566F
:103D680002FB0355069B9845DFDB059B0133059352
:103D78000F9B1F44C3E70024B3E721B0BDE8F08FD1
:103D88002DE9F04F2DED048BAE4BADF20C4D1A68BA
:103D98000F46824609F0B3FAAB4B80463946504687
:103DA8001A6809F0ACFA3C6806464CB12368032B44
:103DB80014D1A64B394650461A6809F0A0FA0446B1
:103DC800A34B394650461A6809F09BFAD7F810B049
:103DD8000546BBF1000F03D10CF067F90024EFE7AB
:103DE800D7F80C90B9F1000FF6D098F8080007281A
:103DF80000F03281092800F09083012840F01484F3
:103E0800BCAF4A465946384600F046FC414629A808
:103E180009F085FAD8F80030314630A8129309F035
:103E28007EFA002ED8D03368214637A8119309F0BE
:103E380076FA04B124680DF1F8082946404609F0DD
:103E48006EFA002DC8D02B68002145A8209309F0F0
:103E580066FAB7F90A30D7ED0C8A1393B7F90C3024
:103E680097ED0D9A1493B7F90E3029AD1593B7F95C
:103E780010301693B7F902301793B7F90430189336
:103E8800299B042BA8D1309B30AE042BA4D13E9B98
:103E9800042BA1D10023424619462846FFF74FFEBE
:103EA80003231990424600213046FFF748FE2D9D16
:103EB8000D902CB137A8FFF703FE0D9B83428BD1E1
:103EC8002B9B329A1A932C9B1C921B93349B339AEC
:103ED800089395FBF3F31D92002B3FF47DAF089AEE
:103EE80002FB1355002D7FF477AF0D9A92FBF3F385
:103EF8001093002B3FF470AF409A419B1E921F9382
:103F0800199BAB4240F35383189B5B420E930023EB
:103F18000B9310E0179B5B420F9300230C931F9B9E
:103F28000C9A934200F38B800B9B149A01330B93EA
:103F38000E9B13440E931E9B0B9A9342EADC0135A9
:103F4800DEE7109B4FF0000A96FBF3F39FED418AE2
:103F5800089A0E9F534321931C9B53452DDC002C3C
:103F68006AD004EB8603D3ED007ADDE90B2338EE43
:103F7800278AF4EEC88AF1EE10FAC8BFB0EE688A54
:103F8800B4EEC89AF1EE10FA009629463EA848BF4A
:103F9800B0EE498AFFF7A1FD209B013603EB8000B4
:103FA80080ED008A0D9BB342CBDC0C9B139A013346
:103FB8000C930F9B13440F93B1E74FF0000BDDF800
:103FC8003C801D9B5B4504DC169B0AF1010A1F44DB
:103FD800C2E757EA08032AD41B9B434527DD1A9BEF
:103FE800BB4224DD4FF000091EE0219B3A464B44BA
:103FF8002946009329A84346FFF76FFD129B5246B6
:1040080003EB8000D0ED009A5B46CDF80090314676
:1040180030A8FFF762FD119B09F1010903EB80004D
:10402800D0ED007AA9EEA78A089B4B45DDDC159BED
:104038000BF1010B9844C4E7DFED067A95E70026FB
:10404800B0E700BF206802081C6802081868020868
:1040580014680208000000001CB1207A022840F011
:104068001F814A465946CAA800F048FBD9F82430AF
:1040780041461393D9F828304CA8149309F04FF906
:10408800D8F80030314653A8169309F048F9002EA5
:104098003FF4A2AE336821465AA8159309F03FF9B8
:1040A80004B1246861AF2946384609F038F9002D73
:1040B8003FF492AE2B682693BDF932331793BDF9BE
:1040C80034331893BDF936331993BDF938331A933D
:1040D800BDF92A331B93BDF92C331C93D49B119340
:1040E800D59B1293DDE9113293423FF775AE4C9B95
:1040F8004CAD042B7FF470AE539B53AE042B7FF46E
:104108006BAE619B042B7FF467AE00233A461946D9
:104118002846FFF714FD03231D903A460021304638
:10412800FFF70DFD509D109034B15AA8FFF7C8FC59
:10413800109B83427FF450AE4E9B559A1E934F9B23
:1041480020921F93579B569A089395FBF3F321925D
:10415800089A02FB1355002D7FF43EAE109AAA462A
:1041680092FBF3F3639A2293649B239224931D9BFF
:10417800534540F31C821C9B5B420E9300230B9318
:1041880010E01B9B5B420F9300230C93249B0C9A1B
:10419800934200F383800B9B189A01330B930E9B79
:1041A80013440E93239B0B9A9342EADC0AF1010A0B
:1041B800DDE70026229BB34695FBF3F3089A0E9F92
:1041C80053432793209BB3422BDC14B154F825307A
:1041D8009B44149B584653F82520139B53F82510ED
:1041E80009F05EFBDDE90B2306460095514661A800
:1041F800FFF773FC119B01359E42B8BF1E46129B08
:104208009E42A8BF1E46269B23F81060109BAB4217
:10421800CFDC0C9B179A01330C930F9B13440F931D
:10422800B4E70023DDF83C800D93219B0D9A93425F
:1042380003DC1A9B01361F44C4E757EA080327D456
:104248001F9B434524DD1E9BBB4221DD4FF0000927
:104258001BE0279B3A464B44514600934CA84346E3
:10426800FFF73BFC169B324633F91030294625935D
:10427800CDF800900D9B53A8FFF72FFC159B259AAE
:104288001B5609F1010912FB03BB089B4B45E0DCF7
:104298000D9B01330D93199B9844C6E70025B5E79C
:1042A800042840F031814A465946D8A800F026FA39
:1042B800D9F8243068AF1393D9F8283041463846E6
:1042C800149309F02CF8D8F8003031466FA82693DB
:1042D80009F025F8002E3FF47FAD3368214676A813
:1042E800259309F01CF829467DA8D4F8009009F018
:1042F80016F8002D3FF470AD2B682493BDF96A338E
:104308001593BDF96C331693BDF96E331793BDF948
:1043180070331893BDF962331993BDF964331A9356
:10432800E29B1193E39B1293DDE9113293423FF72D
:1043380053AD689B042B7FF44FAD6F9B6FAD042B7F
:104348007FF44AAD7D9B7DAE042B7FF445AD002301
:10435800324619463846FFF7F2FB03231B903246D4
:1043680000212846FFF7EBFB3C690E90B9F1000FDE
:1043780006D076A8FFF7A4FB0E9B83427FF42CADF2
:104388006A9B719A1C936B9B1E921D93739B729AE6
:104398000B9394FBF3F31F920B9A02FB1344002C2C
:1043A8007FF41AAD0E9A92FBF3F37F9A2093809BC9
:1043B800219222931B9BA34240F3F9801A9B4FF052
:1043C800000B5B4210930FE0199B5B420F93002395
:1043D8000C93229B0C9A934200F39480109B169A9C
:1043E8000BF1010B13441093219B5B45ECDC01346A
:1043F800E0E7209B0B9A95FBF3F3534327930023A5
:1044080000220D930023CDE90823109E1E9B0D9AD0
:10441800934237DCB9F1000F0BD0089959F83530C1
:1044280009EBC502CB185268099942EB0102CDE9A4
:104438000832DDE90801149B139A53F8253052F825
:10444800252009F071FA06460C9B00955A4621462C
:104458007DA8FFF742FB119B01359E42B8BF1E465F
:10446800129B9E42A8BF1E46249B23F810600E9BF9
:10447800AB42BEDC0C9B159A01330C930F9B134483
:104488000F93A6E74FF0000A0F9F1F9B534505DCCB
:104498000D9B01330D93189B1E44B7E757EA06039B
:1044A8002BD41D9BBB4228DD1C9BB34225DD4FF05E
:1044B80000081FE0279B324643442146009368A822
:1044C8003B46FFF70AFB269B294633F910300D9A25
:1044D8002393CDF8008053466FA8FFF7FEFA259B7B
:1044E800239A1B56DDE90801C2FB8301CDE90801C7
:1044F80008F101080B9B4345DCDC179B0AF1010A14
:104508001F44C2E70025B2E706F034FF227A0146CD
:10451800494808F0DDFD01204AE0307A09284DD0ED
:1045280012287BD1DAF84430D9F83410504698472D
:1045380031460746F4A8D6F800A008F0F0FEF4A823
:10454800FFF7BEFA3A460146504609F043FA4A4692
:104558005946E6A800F0D2F8D9E909A9414684A845
:1045680008F0DDFED8F800B00DF50B78314640466E
:1045780092AE08F0D4FE2146304608F0D0FE04B1D1
:104588002468294699A808F0CAFE002D3FF424ACF7
:104598004A4651462B68CDE90276CDE900B899A87C
:1045A800CDE904400693E6A884ABFFF7D7FA0020CC
:1045B8000DF20C4DBDEC048BBDE8F08F4A46594610
:1045C800F4A800F09BF8D9E909A94146A0A8A7AF2B
:1045D80008F0A5FE31463846D8F8008008F09FFE5E
:1045E800D6F800B0AEAE2146304608F098FE04B1C9
:1045F80024682946B5A808F092FE002D3FF4ECABDC
:104608002B68B5A8CDE9044006934A465146CDE942
:1046180002B6CDE90087A0ABF4A8C6E706F0AAFE6B
:10462800327A0146054874E706F0A4FE98F8082097
:10463800014603486DE700BFCE380208EF3802088C
:1046480012390208002313B50446CDE90033044AA1
:10465800044B054908F02CFE204602B010BD00BFEF
:1046680055490008893D00085347000810B504461D
:10467800184623B1012C03D0022C06D0002010BD0F
:104688001944013991FBF0F0F9E71944029B013A0A
:104698005A430132891AF5E70B7B70B5012B0446A2
:1046A8000D4616461AD0032B1AD0022B1BD06FF4D6
:1046B80000020F4B28786363226308F045FE3368D5
:1046C8002070638073682046A3806B686381AB6841
:1046D800A3812B69E3816B69238270BD0022E8E71F
:1046E8000022044BE6E74FF07E53034AE2E700BF9F
:1046F800FFFF7F7F0000C040000080BF70B51546F7
:10470800044613690E465B42436153695B42836109
:104718009369C361D3690362136A5B424362087891
:1047280008F012FE6B682070A3802B682046638017
:10473800B368A38173686381736923823369E381F2
:10474800EB6AA3622B6BE36270BD836B10B50BB988
:104758000BF0ABFC3821BDE8104018472DE9F04FAD
:104768009A460B688FB01B680546023B012B0F4623
:1047780016461E9C07D96C4B6C4A00935823446913
:104788006B49A04711E04B68D3F80090B9F1010FCD
:104798000DD00123CDE90293664B644A0193664B21
:1047A8006649009344695923A047012091E0936822
:1047B80092F800B00A935368D2F810800B935369AB
:1047C8005146199A0C93CDF800800B9B5846FFF779
:1047D8004DFF0C9B1A9A18990D90009358460A9B06
:1047E800FFF744FF1A9B0C9A013B53430A9A01387E
:1047F800013302FB0033189A0D999B1A199A23EA80
:10480800E373013A08FB02F201F1FF380B99013218
:1048180001FB0822A2EB0A0222EAE2725110D5F843
:104828000C80216002F00102591003F0010361605D
:10483800A260394600224046E36008F0FBF8824651
:1048480038B93F4B009366236C692846374A384984
:1048580097E74A463946404608F0ECF8814620B9C1
:10486800384B00936C696923EFE7394602224046CA
:1048780008F0E0F8394683460022404608F0EFF891
:10488800074620B9304B00936C696E23DDE79DF82D
:104898007430012B20D1DAF80C3039462361D9F86D
:1048A8000C3040466361FB68A361D8F800309B690F
:1048B8009847D8F80030514640469B699847D8F841
:1048C8000030494640469B699847BBF1000F23D109
:1048D80000200FB0BDE8F08FD9F814300C365B68B3
:1048E8004A460893A36A51460793636ACDE90006CE
:1048F800069304F13003059304F12C03049304F1A7
:104908002003039304F11C03029328465B4608F036
:10491800A3FE0028BFD0DCE7D8F80030594640464F
:104928009B699847D4E700BFA63902082E390208C8
:104938008F390208E2430208E4390208CA3902083A
:10494800F8390208093A02081B3A02082DE9F04F23
:10495800D1F80CA00446884699B0BAF1000F01D1ED
:104968000BF0A3FBD1F810B0BBF1000FF8D0C6686C
:104978000022304608F073F8814668B96B4B009303
:104988009623656920466A4A6A49A8474FF0010894
:10499800404619B0BDE8F08F00224146304608F085
:1049A80049F8074620B9644B009365699923E9E7FC
:1049B80001224146304608F03DF8054620B95F4BD4
:1049C800009365699C23DDE73B7F99F81C2093429F
:1049D8000CD0CDE902325A4B01935A4B00939E23D7
:1049E80065692046524A5849A847CFE7012B07D1A5
:1049F800037F012B0ED02046636954499847C5E7C9
:104A0800072B02D1037F092BF4E7092BF3D1037F8E
:104A1800122BF8D17B692046DA689B6809926A698B
:104A28000A93D3680B9393680C93D9F81430D96818
:104A38009B680D915168A26B89000F930E91904766
:104A4800A26BCAF824000E99204690473A7F0F9B24
:104A5800092ACAF8280001D0072A24D1296801297F
:104A680009D00123CDE90213394B0193394B009347
:104A78006569B923B5E7696800293FF471AF08682B
:104A880000283FF46DAF496800293FF469AF00681A
:104A9800012808D069694968884204D02E4B0093E0
:104AA8006569C2236EE704930D9B414603930C9BF3
:104AB800CDE9052A02930B9B5A4601930A9B20468F
:104AC8000093099BFFF74AFE804600287FF460AFF9
:104AD8002B7F122B15D1696951F804BBBBF1060F66
:104AE8003FF73EAF4FEA8B0212A80BF020FD43467A
:104AF800012111AA9B4514DC2046236C0AF13402DB
:104B080098473368294630469B6998473368394641
:104B180030469B6998473368494630469B699847B1
:104B280036E752F8040F01334143E3E71B3A020822
:104B38002E3902088F390208F8390208093A0208A2
:104B48002D3A02083A3A0208CA390208463A0208D7
:104B5800D83A0208F23A02080C3B0208836B10B5F7
:104B68000BB90BF0A2FA3821BDE8104018472DE91F
:104B7800F04F9A46B0F90A30A1B00E93B0F90C3054
:104B8800CDE91E120F93B0F90E30DDF8BCB01093CA
:104B9800B0F910301193B0F902301293B0F9043023
:104BA8001393B0F91230089343691593C3691693A8
:104BB800836A0B93C36A0C93DAF80030042B01D094
:104BC8000BF073FA2B9B1B68042BF9D1DBF8003030
:104BD800042BF5D1DDE90B329342F1DC00235A4670
:104BE80019465046FEF7ABFF03235A46194619905B
:104BF8002B98FEF7A4FFDAF808301793DAF80C3090
:104C08001893DAF810300D932B9B0D9A9B681A9322
:104C18002B9BDB681B93DBF808301C93DBF80C300C
:104C28001D93089B02FB03F48442C9D12D98FEF71B
:104C380047FFA042C4D14FF000098EE00025DDF8FF
:104C480028800695069B1A9A934234DA0023099F16
:104C5800079326E058EA07031ED4189BBB421BDDC6
:104C6800179B434518DD059B42464946009350462D
:104C78003B46FEF732FFDDE90623149000212B980E
:104C88000094FEF72AFF149A2A9B9B56159A134400
:104C98002C9A125602FB0355079B01330793109B6E
:104CA8001F44079B1B9A9342D4DB069B0133069350
:104CB800119B9844C6E72E9B13B153F824301D442A
:104CC8001F9B284653F824201E9B53F8241008F0F5
:104CD800E7FDDDE903230546009449465846FEF7FB
:104CE800FCFE169B01341D440B9B9D42B8BF1D461C
:104CF8000C9B9D42A8BF1D46309B1D54089AA31BC0
:104D08009A429BDC059B164401330593059B0D9A3B
:104D180093420DDB049B0E9A01330493099B1344C1
:104D28000993049B1D9A934204DA00260596EDE741
:104D38003446E3E7039B0F9A013303930A9B13441A
:104D48000A93039B1C9A934205DA129B5B420993D0
:104D580000230493E5E709F10109199B994505DA50
:104D6800139B5B420A9300230393EAE721B0BDE853
:104D7800F08F00002DE9F04F2DED068BD1F80C9047
:104D880083468846ADF5597DB9F1000F01D10BF086
:104D98008CF9D1F810A0BAF1000FF8D0A34B1A681B
:104DA80008F0AFFAA24B41461A680546584608F083
:104DB800A6FAA04B0746414658461A6808F09FFADB
:104DC800D8F80040064654B12368032B40F086808B
:104DD800994B414658461A6808F091FA0446387AC1
:104DE800072800F0AE81092800F02A81012840F048
:104DF800E4820DF518784A465146404600F0FEFA1E
:104E0800394628A808F08BFA3B6831462FA8149336
:104E180008F085FA002EBAD03368214636A81393D5
:104E280008F07DFA04B124683DAF2946384608F0F9
:104E380076FA002DABD02B68D8ED0C8A2293B8F9FE
:104E48000A3098ED0D9A1593B8F90C3028AE1693E0
:104E5800B8F90E301793B8F910301893B8F9023032
:104E68001993B8F904301A93B8F912300D93289BA6
:104E7800042B8CD12F9B2FAD042B88D13D9B042B69
:104E880085D100233A4619463046FEF758FE0323DB
:104E98003A4619461B902846FEF751FE2A9B804643
:104EA8001C932B9B1D932C9B1193319B119A1E9342
:104EB800329B1F933F9B2093409B21930D9B534311
:104EC80098427FF464AF36A8FEF7FAFD80457FF478
:104ED8005EAF4FF00008DFED599A9EE000247EE7B0
:104EE8004FF0000B9FED558A09EB0503109F1293B5
:104EF8001E9B5B4534DD4FF0000A0F9E28E057EA01
:104F0800060321D41D9BB3421EDD1C9BBB421BDD47
:104F1800089B3A464146009328A83346FEF7DDFD34
:104F2800149B5A4603EB8000129B90ED00AA0021C7
:104F380000932FA85346FEF7D0FD139B03EB800088
:104F4800D0ED007AAAEE278A179B0AF1010A1E44BF
:104F58001F9B5345D3DC189B0BF1010B1F44C7E77C
:104F6800002C36D00E9BD3ED007A38EE278AF4EE6B
:104F7800C88AF1EE10FAC8BFB0EE688AB4EEC89AD3
:104F8800F1EE10FA129B414600933DA8DDE90B3281
:104F980048BFB0EE498AFEF7A0FD229B09F101093E
:104FA80003EB800080ED008A0E9B04330E930D9B6B
:104FB8004B4595DC089B013308930D9B1D44119BC1
:104FC800089A934208DD04EB85034FF000090E931D
:104FD800EDE7F0EE697AC8E70B9B159A01330B935E
:104FE8000F9B13440F93219B0B9A934202DD0025DC
:104FF8000895E4E70C9B169A01330C93109B134415
:105008001093209B0C9A934205DD199B5B420F93EA
:1050180000230B93E7E708F101081B9B434559DD83
:105028001A9B5B42109300230C93EAE7246802085A
:10503800306802082C68020828680208000000008E
:10504800307A09284DD0122840F0A881DBF8443086
:10505800D9F834105846984731468046C8A8D6F83B
:1050680000B008F05CF9C8A8FEF72AFD42460146E0
:10507800584608F0AFFC4A465146A8A800F0F2F995
:10508800D9E909A9394644A808F049F9D7F800B080
:105098004BAF3146384652AE08F041F9214630460A
:1050A80008F03DF904B12468294659A808F037F9F1
:1050B800002D3FF46CAE4A4651462B68CDE9028676
:1050C800CDE900B759A8CDE904400693A8A844AB98
:1050D800FFF74DFD00200DF5597DBDEC068BBDE8B1
:1050E800F08F4A465146B8A800F0BCF9D9E90989B9
:1050F800394660A808F013F9D7F800A067AF314621
:10510800384608F00CF9D6F800B06EAE21463046A5
:1051180008F005F904B12468294675A808F0FFF8D5
:10512800002D3FF434AE2B6875A8CDE904400693F2
:105138004A464146CDE902B6CDE900A760ABB8A81A
:10514800C6E7307A092840F029814A465146C8A85E
:1051580000F088F9D9F8243039461593D9F8283061
:105168007CA8169308F0DBF83B68314683A81893AF
:1051780008F0D5F8336821468AA8179308F0CFF8C5
:1051880004B1246891AE2946304608F0C8F8002DCD
:105198003FF4FDAD2B680DF5F87A2793BDF92A3356
:1051A8001993BDF92C331A93BDF92E331B93BDF90E
:1051B80030331C93BDF922331D93BDF924331E935C
:1051C800BDF932330F93D29B1293D39B1393DAF822
:1051D8000030042B7FF4DBAD839B83AD042B7FF47D
:1051E800D6AD919B042B7FF4D2ADDDE91232934208
:1051F8003FF7CDAD0023324619465046FEF79FFCD7
:105208000323324619461F902846FEF798FCDAF821
:10521800083007462093DAF80C302193DAF810307A
:105228001493859B149A2293869B2393939B249390
:10523800949B25930F9B534398427FF4A8AD8AA86B
:10524800FEF73EFC87427FF4A2AD4FF000099BE0D9
:10525800002300220E930023CDE90823DDF84480C3
:10526800229B0E9A934237DD0023109F0D9329E06D
:1052780057EA080321D4219BBB421EDD209B4345EE
:105288001BDD0B9B42464946009350463B46FEF7C2
:1052980024FC189B002133F910300095269383A82D
:1052A800DDE90D32FEF719FC179B269A1B56DDE93E
:1052B8000801C2FB8301CDE908010D9B01330D9361
:1052C8001B9B1F44239B0D9A9342D1DC0E9B0133F9
:1052D8000E931C9B9844C3E75CB1089954F8353089
:1052E80004EBC502CB185268099942EB0102CDE9DB
:1052F8000832DDE90801169B159A53F8253052F853
:10530800252008F011FB07460C9B00955A46494694
:1053180091A8FEF7E2FB129B01359F42B8BF1F46DA
:10532800139B9F42A8BF1F46279B23F810700F9A14
:10533800AB1B9A428CDC0B9B164401330B93149BDA
:105348000B9A93420DDC0C9B199A01330C93109B1A
:1053580013441093259B0C9A934204DD00260B9668
:10536800EDE73546E3E7119B1A9A0BF1010B13445D
:105378001193249B5B4505DD1D9B5B421093002325
:105388000C93E7E709F101091F9B4B457FF7A2AE94
:105398001E9B4FF0000B5B421193EAE705F0EAFF12
:1053A8000446387A357A05F0E5FF2A460346214651
:1053B800064807F08DFE01208DE605F0DBFF3A7AFE
:1053C8000146034807F084FEF5E700BF853B020865
:1053D800BA3B0208002313B50446CDE90033044A5A
:1053E800044B054907F064FF204602B010BD00BF1A
:1053F800B15600087D4D0008654B00080B7C70B560
:10540800012B04460D4616461CD0032B1CD0022B3C
:105418001DD06FF40002104B28786363226307F0F5
:1054280093FF33682070638073682046A3806B689D
:105438006381AB68A3816B69E381AB692382EB6805
:10544800638270BD0022E6E70022044BE4E74FF0D8
:105458007E53034AE0E700BFFFFF7F7F0000C040A4
:10546800000080BF70B5154604460E4613695B42BE
:10547800436153695B4283619369C361D369036282
:10548800136A5B424362087807F05EFF6B6820701E
:10549800A3802B6820466380B368A3817368638107
:1054A800B36923827369E381F3686382EB6AA36259
:1054B8002B6BE36270BD00002DE9F04F99460B6835
:1054C8008FB01B6806460A93023B012B8846174695
:1054D8001E9C07D9674B684A00935823446967495B
:1054E800A0470FE04B681B68012B0FD00122CDE9C4
:1054F8000232634B604A0193624B634900934469EB
:105508005923A04701200FB0BDE8F08F936892F8A7
:1055180000B00B935368D2E9055A4946199A009589
:1055280058460C93FFF7A2F80B9B1A9A18990D90FE
:10553800CDF800A05846FFF799F81A9B0B9A013B43
:105548000AFB03F30138013302FB0033189A0D9963
:105558009B1A199A23EAE373013A6A434D1E0C9980
:10556800013201FB0522A2EB090222EAE272511084
:105578002160591003F00103F568E360434B02F022
:1055880001026160A260414628461A6807F052FA93
:10559800824638B93E4B0093662374693046364AD2
:1055A80036499DE73B4B414628461A6807F042FAC0
:1055B800814620B9384B009374696923EEE7374B6D
:1055C80041461A68284607F035FA354B4146834666
:1055D8001A68284607F043FA804620B9314B0093F1
:1055E80074696E23DAE79DF87430012B21D1DAF85B
:1055F8000C3051462361D9F80C3028466361D8F83D
:105608000C30A3612B689B6998472B6849469B69B6
:10561800284698470A9B032B04D12B6859462846ED
:105628009B6998472B68284641469B699847002004
:1056380069E7D9F8143010371B694A460893A36AFA
:1056480051460793636ACDE90007069304F13003D6
:10565800059304F12C03049304F12003039304F14C
:105668001C03029330465B4607F0F6FF0028BED0C5
:1056780049E700BFA6390208DC3B02088F39020857
:10568800E2430208E4390208CA390208206802081D
:10569800F83902081C680208093A02081868020862
:1056A800146802081B3A02082DE9F04FD1F80CA043
:1056B8000446884699B0BAF1000F01D10AF0F5FC0A
:1056C800D1F810B0BBF1000FF8D0C6680022304600
:1056D80007F0C5F9814660B9674B00939623656961
:1056E8002046664A6649A8470124204619B0BDE805
:1056F800F08F00224146304607F09CF9074620B952
:10570800604B009365699923EAE7012241463046D8
:1057180007F090F9054620B95B4B009365699C2317
:10572800DEE77B69DA689B6809920A934369204639
:10573800DA680B929A680C92D9F81420D1689268AA
:105748000D911969A36B89000E920F919847A36B6D
:10575800CAF824000F99204698473B7FCAF82800CA
:10576800092B31D12A68012A0DD00123CDE9022362
:10577800464B0193464B0093B023656920463F4A48
:105788004449A847B0E76A68002A97D010680028FB
:1057980094D05168002991D00268012A08D068691C
:1057A8000069824204D03C4B00936569B92397E7AE
:1057B80009688A4208D0394BCDE902210193384B58
:1057C80000936569BE23D9E72A7F934234D0092B19
:1057D8002BD1122A32D0092A29D1CDF818A03B7F23
:1057E800204605930E9B5A4604930D9B414603930E
:1057F8000C9B02930B9B01930A9B0093099BFFF759
:105808005BFE044600287FF470AF33684946304693
:105818009B6998473368394630469B69984733688F
:10582800294630469B6998475FE7072BD3D0204627
:1058380063691C49984757E7122BCED1696951F81B
:10584800043B062B3FF73AAF9A0012A80F930AF0D1
:105858006EFE002201210F9B11A8934205DC204611
:10586800236C0AF134029847B7E750F804CF0132A5
:105878000CFB01F1F1E700BF1B3A0208DC3B020810
:105888008F390208F8390208093A0208D83A02089A
:10589800F23A0208CA390208473C0208C93C020821
:1058A800EF3C0208103D0208836B10B50BB90AF0F3
:1058B800FCFB3021BDE81040184700002DE9F04FEF
:1058C800D1F80CA004460F46C5688FB0BAF1000F96
:1058D80001D10AF0EAFBD1F810B0BBF1000FF8D003
:1058E800564B28461A6807F0A5F8804660B9544B0D
:1058F8000093302365692046524A5349A84701243A
:1059080020460FB0BDE8F08F504B394628461A683C
:1059180007F090F8064620B94D4B0093656933238C
:10592800E9E74C4B39461A68284607F083F84A4B92
:10593800394681461A68284607F091F8074620B983
:10594800464B009365693823D5E798F81C003B7FE0
:10595800834212D0666905F00DFD0546387F05F0D3
:1059680009FD3F4BCDE9025001933E4B2046009381
:10597800344A39233C49B047C1E70128337F0DD168
:10598800012B2DD005F0F6FC0446307F05F0F2FC23
:1059980021460246354807F09BFBB0E7092819D194
:1059A800092B1DD0122BEDD1716951F8043B062B40
:1059B8008FDC9A0008A805930AF0B9FD002201219E
:1059C800059B07A8934232DC2046236C0AF120028B
:1059D800984705E0072801D1092BD2E7122BE3D01D
:1059E80098F81C209BF8001020464346CDE9027A1F
:1059F800CDE9006900F0FAFD0446002880D12B6843
:105A0800414628469B6998472B68314628469B693A
:105A18009847B9F1000F04D02B68494628469B697E
:105A280098472B68394628469B69984768E750F895
:105A380004CF01320CFB01F1C4E700BF4068020843
:105A4800F8390208AC3D02088F3902083C680208A0
:105A5800093A020838680208346802081B3A020842
:105A68002D3A02083A3A0208113E02082B3E020873
:105A7800002938B50346046801DBA14201DB0AF0BE
:105A880014FB0022012004338A420CBF012553F87D
:105A980022500132944205FB00F0F5DC38BD2DE9B7
:105AA800F04F8DB00A930368176802934368012F7B
:105AB8000393836815460493C368179C0593036989
:105AC80009910693436900938369019301DC0AF005
